{
  "contractName": "Exchange",
  "abi": [
    {
      "anonymous": false,
      "inputs": [
        {
          "indexed": true,
          "internalType": "address",
          "name": "_who",
          "type": "address"
        },
        {
          "indexed": false,
          "internalType": "uint256",
          "name": "timestamp",
          "type": "uint256"
        },
        {
          "indexed": false,
          "internalType": "string",
          "name": "_symbolName",
          "type": "string"
        },
        {
          "indexed": false,
          "internalType": "uint256",
          "name": "_amountInWei",
          "type": "uint256"
        },
        {
          "indexed": false,
          "internalType": "uint256",
          "name": "_priceInWei",
          "type": "uint256"
        },
        {
          "indexed": false,
          "internalType": "uint256",
          "name": "_orderKey",
          "type": "uint256"
        },
        {
          "indexed": false,
          "internalType": "string",
          "name": "orderType",
          "type": "string"
        }
      ],
      "name": "BuyLimitOrderCanceled",
      "type": "event"
    },
    {
      "anonymous": false,
      "inputs": [
        {
          "indexed": true,
          "internalType": "address",
          "name": "_who",
          "type": "address"
        },
        {
          "indexed": false,
          "internalType": "uint256",
          "name": "timestamp",
          "type": "uint256"
        },
        {
          "indexed": false,
          "internalType": "string",
          "name": "_symbolName",
          "type": "string"
        },
        {
          "indexed": false,
          "internalType": "uint256",
          "name": "_amountInWei",
          "type": "uint256"
        },
        {
          "indexed": false,
          "internalType": "uint256",
          "name": "_priceInWei",
          "type": "uint256"
        },
        {
          "indexed": false,
          "internalType": "uint256",
          "name": "_orderKey",
          "type": "uint256"
        },
        {
          "indexed": false,
          "internalType": "string",
          "name": "orderType",
          "type": "string"
        }
      ],
      "name": "BuyLimitOrderCreated",
      "type": "event"
    },
    {
      "anonymous": false,
      "inputs": [
        {
          "indexed": true,
          "internalType": "address",
          "name": "_who",
          "type": "address"
        },
        {
          "indexed": false,
          "internalType": "uint256",
          "name": "timestamp",
          "type": "uint256"
        },
        {
          "indexed": false,
          "internalType": "string",
          "name": "_symbolName",
          "type": "string"
        },
        {
          "indexed": false,
          "internalType": "uint256",
          "name": "_amountInWei",
          "type": "uint256"
        },
        {
          "indexed": false,
          "internalType": "uint256",
          "name": "_priceInWei",
          "type": "uint256"
        },
        {
          "indexed": false,
          "internalType": "uint256",
          "name": "_orderKey",
          "type": "uint256"
        },
        {
          "indexed": false,
          "internalType": "string",
          "name": "orderType",
          "type": "string"
        }
      ],
      "name": "BuyLimitOrderFulfilled",
      "type": "event"
    },
    {
      "anonymous": false,
      "inputs": [
        {
          "indexed": true,
          "internalType": "address",
          "name": "_initiator",
          "type": "address"
        },
        {
          "indexed": false,
          "internalType": "uint256",
          "name": "_timestamp",
          "type": "uint256"
        },
        {
          "indexed": false,
          "internalType": "uint256",
          "name": "_amountInWei",
          "type": "uint256"
        }
      ],
      "name": "EtherDeposited",
      "type": "event"
    },
    {
      "anonymous": false,
      "inputs": [
        {
          "indexed": true,
          "internalType": "address",
          "name": "_initiator",
          "type": "address"
        },
        {
          "indexed": false,
          "internalType": "uint256",
          "name": "_timestamp",
          "type": "uint256"
        },
        {
          "indexed": false,
          "internalType": "uint256",
          "name": "_amountInWei",
          "type": "uint256"
        }
      ],
      "name": "EtherWithdrawn",
      "type": "event"
    },
    {
      "anonymous": false,
      "inputs": [
        {
          "indexed": true,
          "internalType": "address",
          "name": "previousOwner",
          "type": "address"
        }
      ],
      "name": "OwnershipRenounced",
      "type": "event"
    },
    {
      "anonymous": false,
      "inputs": [
        {
          "indexed": true,
          "internalType": "address",
          "name": "previousOwner",
          "type": "address"
        },
        {
          "indexed": true,
          "internalType": "address",
          "name": "newOwner",
          "type": "address"
        }
      ],
      "name": "OwnershipTransferred",
      "type": "event"
    },
    {
      "anonymous": false,
      "inputs": [
        {
          "indexed": true,
          "internalType": "address",
          "name": "_who",
          "type": "address"
        },
        {
          "indexed": false,
          "internalType": "uint256",
          "name": "timestamp",
          "type": "uint256"
        },
        {
          "indexed": false,
          "internalType": "string",
          "name": "_symbolName",
          "type": "string"
        },
        {
          "indexed": false,
          "internalType": "uint256",
          "name": "_amountInWei",
          "type": "uint256"
        },
        {
          "indexed": false,
          "internalType": "uint256",
          "name": "_priceInWei",
          "type": "uint256"
        },
        {
          "indexed": false,
          "internalType": "uint256",
          "name": "_orderKey",
          "type": "uint256"
        },
        {
          "indexed": false,
          "internalType": "string",
          "name": "orderType",
          "type": "string"
        }
      ],
      "name": "SellLimitOrderCanceled",
      "type": "event"
    },
    {
      "anonymous": false,
      "inputs": [
        {
          "indexed": true,
          "internalType": "address",
          "name": "_who",
          "type": "address"
        },
        {
          "indexed": false,
          "internalType": "uint256",
          "name": "timestamp",
          "type": "uint256"
        },
        {
          "indexed": false,
          "internalType": "string",
          "name": "_symbolName",
          "type": "string"
        },
        {
          "indexed": false,
          "internalType": "uint256",
          "name": "_amountInWei",
          "type": "uint256"
        },
        {
          "indexed": false,
          "internalType": "uint256",
          "name": "_priceInWei",
          "type": "uint256"
        },
        {
          "indexed": false,
          "internalType": "uint256",
          "name": "_orderKey",
          "type": "uint256"
        },
        {
          "indexed": false,
          "internalType": "string",
          "name": "orderType",
          "type": "string"
        }
      ],
      "name": "SellLimitOrderCreated",
      "type": "event"
    },
    {
      "anonymous": false,
      "inputs": [
        {
          "indexed": true,
          "internalType": "address",
          "name": "_who",
          "type": "address"
        },
        {
          "indexed": false,
          "internalType": "uint256",
          "name": "timestamp",
          "type": "uint256"
        },
        {
          "indexed": false,
          "internalType": "string",
          "name": "_symbolName",
          "type": "string"
        },
        {
          "indexed": false,
          "internalType": "uint256",
          "name": "_amountInWei",
          "type": "uint256"
        },
        {
          "indexed": false,
          "internalType": "uint256",
          "name": "_priceInWei",
          "type": "uint256"
        },
        {
          "indexed": false,
          "internalType": "uint256",
          "name": "_orderKey",
          "type": "uint256"
        },
        {
          "indexed": false,
          "internalType": "string",
          "name": "orderType",
          "type": "string"
        }
      ],
      "name": "SellLimitOrderFulfilled",
      "type": "event"
    },
    {
      "anonymous": false,
      "inputs": [
        {
          "indexed": true,
          "internalType": "address",
          "name": "_initiator",
          "type": "address"
        },
        {
          "indexed": false,
          "internalType": "uint256",
          "name": "_timestamp",
          "type": "uint256"
        },
        {
          "indexed": true,
          "internalType": "uint8",
          "name": "_tokenIndex",
          "type": "uint8"
        },
        {
          "indexed": false,
          "internalType": "string",
          "name": "_symbolName",
          "type": "string"
        }
      ],
      "name": "TokenAdded",
      "type": "event"
    },
    {
      "anonymous": false,
      "inputs": [
        {
          "indexed": true,
          "internalType": "address",
          "name": "_initiator",
          "type": "address"
        },
        {
          "indexed": false,
          "internalType": "uint256",
          "name": "_timestamp",
          "type": "uint256"
        },
        {
          "indexed": true,
          "internalType": "uint8",
          "name": "_tokenIndex",
          "type": "uint8"
        },
        {
          "indexed": false,
          "internalType": "string",
          "name": "_symbolName",
          "type": "string"
        },
        {
          "indexed": false,
          "internalType": "uint256",
          "name": "_amount",
          "type": "uint256"
        }
      ],
      "name": "TokenDeposited",
      "type": "event"
    },
    {
      "anonymous": false,
      "inputs": [
        {
          "indexed": true,
          "internalType": "address",
          "name": "_initiator",
          "type": "address"
        },
        {
          "indexed": false,
          "internalType": "uint256",
          "name": "_timestamp",
          "type": "uint256"
        },
        {
          "indexed": true,
          "internalType": "uint8",
          "name": "_tokenIndex",
          "type": "uint8"
        },
        {
          "indexed": false,
          "internalType": "string",
          "name": "_symbolName",
          "type": "string"
        },
        {
          "indexed": false,
          "internalType": "uint256",
          "name": "_amount",
          "type": "uint256"
        }
      ],
      "name": "TokenWithdrawn",
      "type": "event"
    },
    {
      "inputs": [],
      "name": "owner",
      "outputs": [
        {
          "internalType": "address",
          "name": "",
          "type": "address"
        }
      ],
      "stateMutability": "view",
      "type": "function"
    },
    {
      "inputs": [],
      "name": "renounceOwnership",
      "outputs": [],
      "stateMutability": "nonpayable",
      "type": "function"
    },
    {
      "inputs": [
        {
          "internalType": "address",
          "name": "newOwner",
          "type": "address"
        }
      ],
      "name": "transferOwnership",
      "outputs": [],
      "stateMutability": "nonpayable",
      "type": "function"
    },
    {
      "inputs": [],
      "name": "getBalanceInWei",
      "outputs": [
        {
          "internalType": "uint256",
          "name": "",
          "type": "uint256"
        }
      ],
      "stateMutability": "view",
      "type": "function"
    },
    {
      "inputs": [
        {
          "internalType": "string",
          "name": "symbolName",
          "type": "string"
        },
        {
          "internalType": "address",
          "name": "tokenContract",
          "type": "address"
        }
      ],
      "name": "addToken",
      "outputs": [],
      "stateMutability": "nonpayable",
      "type": "function"
    },
    {
      "inputs": [
        {
          "internalType": "string",
          "name": "symbolName",
          "type": "string"
        }
      ],
      "name": "hasToken",
      "outputs": [
        {
          "internalType": "bool",
          "name": "",
          "type": "bool"
        }
      ],
      "stateMutability": "view",
      "type": "function"
    },
    {
      "inputs": [
        {
          "internalType": "address",
          "name": "_account",
          "type": "address"
        },
        {
          "internalType": "string",
          "name": "symbolName",
          "type": "string"
        }
      ],
      "name": "getBalanceToken",
      "outputs": [
        {
          "internalType": "uint256",
          "name": "",
          "type": "uint256"
        }
      ],
      "stateMutability": "view",
      "type": "function"
    },
    {
      "inputs": [
        {
          "internalType": "string",
          "name": "symbolName",
          "type": "string"
        }
      ],
      "name": "getBuyOrderBookPricesAndAmount",
      "outputs": [
        {
          "internalType": "uint256",
          "name": "",
          "type": "uint256"
        },
        {
          "internalType": "uint256",
          "name": "",
          "type": "uint256"
        },
        {
          "internalType": "uint256",
          "name": "",
          "type": "uint256"
        }
      ],
      "stateMutability": "view",
      "type": "function"
    },
    {
      "inputs": [
        {
          "internalType": "string",
          "name": "symbolName",
          "type": "string"
        },
        {
          "internalType": "uint256",
          "name": "priceInWei",
          "type": "uint256"
        }
      ],
      "name": "getBuyOrderBookOffersStartAndEnd",
      "outputs": [
        {
          "internalType": "uint256",
          "name": "",
          "type": "uint256"
        },
        {
          "internalType": "uint256",
          "name": "",
          "type": "uint256"
        }
      ],
      "stateMutability": "view",
      "type": "function"
    },
    {
      "inputs": [
        {
          "internalType": "string",
          "name": "symbolName",
          "type": "string"
        },
        {
          "internalType": "uint256",
          "name": "priceInWei",
          "type": "uint256"
        },
        {
          "internalType": "uint256",
          "name": "offerIndex",
          "type": "uint256"
        }
      ],
      "name": "getBuyOrderBookOffersOrderTraderAndAmount",
      "outputs": [
        {
          "internalType": "address",
          "name": "",
          "type": "address"
        },
        {
          "internalType": "uint256",
          "name": "",
          "type": "uint256"
        }
      ],
      "stateMutability": "view",
      "type": "function"
    },
    {
      "inputs": [
        {
          "internalType": "string",
          "name": "symbolName",
          "type": "string"
        },
        {
          "internalType": "uint256",
          "name": "amount",
          "type": "uint256"
        },
        {
          "internalType": "uint256",
          "name": "priceInWei",
          "type": "uint256"
        }
      ],
      "name": "buyToken",
      "outputs": [
        {
          "internalType": "uint256",
          "name": "",
          "type": "uint256"
        }
      ],
      "stateMutability": "payable",
      "type": "function"
    },
    {
      "inputs": [
        {
          "internalType": "string",
          "name": "symbolName",
          "type": "string"
        },
        {
          "internalType": "uint256",
          "name": "amount",
          "type": "uint256"
        },
        {
          "internalType": "uint256",
          "name": "priceInWei",
          "type": "uint256"
        }
      ],
      "name": "sellToken",
      "outputs": [
        {
          "internalType": "uint256",
          "name": "",
          "type": "uint256"
        }
      ],
      "stateMutability": "nonpayable",
      "type": "function"
    },
    {
      "inputs": [
        {
          "internalType": "string",
          "name": "symbolName",
          "type": "string"
        },
        {
          "internalType": "uint256",
          "name": "priceInWei",
          "type": "uint256"
        },
        {
          "internalType": "uint256",
          "name": "orderPosition",
          "type": "uint256"
        }
      ],
      "name": "cancelBuyLimitOrder",
      "outputs": [],
      "stateMutability": "nonpayable",
      "type": "function"
    },
    {
      "inputs": [
        {
          "internalType": "string",
          "name": "symbolName",
          "type": "string"
        },
        {
          "internalType": "uint256",
          "name": "priceInWei",
          "type": "uint256"
        },
        {
          "internalType": "uint256",
          "name": "orderPosition",
          "type": "uint256"
        }
      ],
      "name": "cancelSellLimitOrder",
      "outputs": [],
      "stateMutability": "nonpayable",
      "type": "function"
    }
  ],
  "bytecode": "0x60806040526012600a620000149190620000c6565b6001553480156200002457600080fd5b50336000806101000a81548173ffffffffffffffffffffffffffffffffffffffff021916908373ffffffffffffffffffffffffffffffffffffffff16021790555062000249565b6000808291508390505b6001851115620000bd578086048111156200009557620000946200020d565b5b6001851615620000a55780820291505b8081029050620000b5856200023c565b945062000075565b94509492505050565b6000620000d38262000203565b9150620000e08362000203565b92506200010f7fffffffffffffffffffffffffffffffffffffffffffffffffffffffffffffffff848462000117565b905092915050565b600082620001295760019050620001fc565b81620001395760009050620001fc565b81600181146200015257600281146200015d5762000193565b6001915050620001fc565b60ff8411156200017257620001716200020d565b5b8360020a9150848211156200018c576200018b6200020d565b5b50620001fc565b5060208310610133831016604e8410600b8410161715620001cd5782820a905083811115620001c757620001c66200020d565b5b620001fc565b620001dc84848460016200006b565b92509050818404811115620001f657620001f56200020d565b5b81810290505b9392505050565b6000819050919050565b7f4e487b7100000000000000000000000000000000000000000000000000000000600052601160045260246000fd5b6000600282049050919050565b61554680620002596000396000f3fe6080604052600436106100fa576000357c010000000000000000000000000000000000000000000000000000000090048063851030fe1161009c5780638ea00818116100765780638ea00818146102fa578063b0b22c2c14610337578063edb2c13b14610360578063f2fde38b14610389576100fa565b8063851030fe1461025457806389a98eee146102915780638da5cb5b146102cf576100fa565b80633d96d38c116100d85780633d96d38c146101a75780635ab8ea33146101d05780635ce814de14610200578063715018a61461023d576100fa565b80630751b1e7146100ff57806318b95fbf1461013e5780631eadd96614610169575b600080fd5b34801561010b57600080fd5b50610126600480360381019061012191906141b0565b6103b2565b60405161013593929190614ae7565b60405180910390f35b34801561014a57600080fd5b50610153610447565b6040516101609190614881565b60405180910390f35b34801561017557600080fd5b50610190600480360381019061018b9190614299565b61048e565b60405161019e92919061463d565b60405180910390f35b3480156101b357600080fd5b506101ce60048036038101906101c99190614299565b61056f565b005b6101ea60048036038101906101e59190614299565b610afb565b6040516101f79190614881565b60405180910390f35b34801561020c57600080fd5b5061022760048036038101906102229190614133565b6111c4565b6040516102349190614881565b60405180910390f35b34801561024957600080fd5b5061025261127b565b005b34801561026057600080fd5b5061027b60048036038101906102769190614299565b611379565b6040516102889190614881565b60405180910390f35b34801561029d57600080fd5b506102b860048036038101906102b39190614245565b611bcd565b6040516102c6929190614abe565b60405180910390f35b3480156102db57600080fd5b506102e4611c81565b6040516102f191906145eb565b60405180910390f35b34801561030657600080fd5b50610321600480360381019061031c91906141b0565b611ca5565b60405161032e9190614666565b60405180910390f35b34801561034357600080fd5b5061035e600480360381019061035991906141f1565b611cc2565b005b34801561036c57600080fd5b5061038760048036038101906103829190614299565b611e95565b005b34801561039557600080fd5b506103b060048036038101906103ab919061410a565b612388565b005b60008060006103c084611ca5565b6103ff576040517f08c379a00000000000000000000000000000000000000000000000000000000081526004016103f690614841565b60405180910390fd5b600061040a856124d7565b90506000600260008360ff1660ff168152602001908152602001600020905080600301548160040154826005015494509450945050509193909250565b6000600560003373ffffffffffffffffffffffffffffffffffffffff1673ffffffffffffffffffffffffffffffffffffffff16815260200190815260200160002054905090565b60008061049a85611ca5565b6104d9576040517f08c379a00000000000000000000000000000000000000000000000000000000081526004016104d090614841565b60405180910390fd5b60006104e4866124d7565b90506000600260008360ff1660ff168152602001908152602001600020905060008160020160008881526020019081526020016000209050600081600201600088815260200190815260200160002090508060000160009054906101000a900473ffffffffffffffffffffffffffffffffffffffff1681600101549550955050505050935093915050565b600042905061057d84611ca5565b6105bc576040517f08c379a00000000000000000000000000000000000000000000000000000000081526004016105b390614861565b60405180910390fd5b60006105c7856124d7565b90506000600260008360ff1660ff16815260200190815260200160002090506000816006016000878152602001908152602001600020600201600086815260200190815260200160002090503373ffffffffffffffffffffffffffffffffffffffff168160000160009054906101000a900473ffffffffffffffffffffffffffffffffffffffff1673ffffffffffffffffffffffffffffffffffffffff16146106a5576040517f08c379a000000000000000000000000000000000000000000000000000000000815260040161069c90614761565b60405180910390fd5b6000816001015414156106ed576040517f08c379a00000000000000000000000000000000000000000000000000000000081526004016106e490614741565b60405180910390fd5b61075a8160010154600460003373ffffffffffffffffffffffffffffffffffffffff1673ffffffffffffffffffffffffffffffffffffffff16815260200190815260200160002060008660ff1660ff1681526020019081526020016000205461255390919063ffffffff16565b600460003373ffffffffffffffffffffffffffffffffffffffff1673ffffffffffffffffffffffffffffffffffffffff16815260200190815260200160002060008560ff1660ff168152602001908152602001600020819055506107cf816001015483600901546125a090919063ffffffff16565b82600901819055503373ffffffffffffffffffffffffffffffffffffffff167f41a3bd648696d1c7b3d0c5dffc63a9491e794f44a4716228125bdf0bdf364848858984600101548a8a604051610829959493929190614a51565b60405180910390a28060010154600460003373ffffffffffffffffffffffffffffffffffffffff1673ffffffffffffffffffffffffffffffffffffffff16815260200190815260200160002060008560ff1660ff1681526020019081526020016000205410156108ce576040517f08c379a00000000000000000000000000000000000000000000000000000000081526004016108c590614821565b60405180910390fd5b61093b8160010154600460003373ffffffffffffffffffffffffffffffffffffffff1673ffffffffffffffffffffffffffffffffffffffff16815260200190815260200160002060008660ff1660ff168152602001908152602001600020546125a090919063ffffffff16565b600460003373ffffffffffffffffffffffffffffffffffffffff1673ffffffffffffffffffffffffffffffffffffffff16815260200190815260200160002060008560ff1660ff168152602001908152602001600020819055508260ff163373ffffffffffffffffffffffffffffffffffffffff167ffb43d11d08dc11b540fd978eddf3b0e7ff9dc3bc3a31406ac9abfce1f0712894868a85600101546040516109e7939291906148cc565b60405180910390a360011515600260008560ff1660ff16815260200190815260200160002060010160009054906101000a900473ffffffffffffffffffffffffffffffffffffffff1673ffffffffffffffffffffffffffffffffffffffff1663a9059cbb3384600101546040518363ffffffff167c0100000000000000000000000000000000000000000000000000000000028152600401610a8a92919061463d565b602060405180830381600087803b158015610aa457600080fd5b505af1158015610ab8573d6000803e3d6000fd5b505050506040513d601f19601f82011682018060405250810190610adc9190614187565b151514610ae857600080fd5b6000816001018190555050505050505050565b600080429050610b0a85611ca5565b610b49576040517f08c379a0000000000000000000000000000000000000000000000000000000008152600401610b40906147e1565b60405180910390fd5b610b9b34600560003373ffffffffffffffffffffffffffffffffffffffff1673ffffffffffffffffffffffffffffffffffffffff1681526020019081526020016000205461255390919063ffffffff16565b600560003373ffffffffffffffffffffffffffffffffffffffff1673ffffffffffffffffffffffffffffffffffffffff168152602001908152602001600020819055503373ffffffffffffffffffffffffffffffffffffffff167fef51b4c870b8b0100eae2072e91db01222a303072af3728e58c9d4d2da33127f8234604051610c26929190614abe565b60405180910390a2610c55600154610c4785876125ed90919063ffffffff16565b61265690919063ffffffff16565b600560003373ffffffffffffffffffffffffffffffffffffffff1673ffffffffffffffffffffffffffffffffffffffff168152602001908152602001600020541015610cd6576040517f08c379a0000000000000000000000000000000000000000000000000000000008152600401610ccd90614681565b60405180910390fd5b6000610ce1866124d7565b90506000600260008360ff1660ff16815260200190815260200160002090506000610d0e8284898961266c565b90506000811415610d7d573373ffffffffffffffffffffffffffffffffffffffff167fc39b271767de39268ffc47e261da09279a8a6709ea7948b74e4c7a5e7217fdac858a8a8a6000604051610d6895949392919061490a565b60405180910390a260009450505050506111bd565b6000826003015490505b8087108015610d9a575082600401548710155b15610dbf57826002016000828152602001908152602001600020600101549050610d87565b600083600501541415610e0157868360040181905550868360030181905550600183600201600089815260200190815260200160002060030181905550610fb0565b8260030154871115610e7b57826003015483600201600089815260200190815260200160002060010181905550868360020160008560030154815260200190815260200160002060000181905550868360030181905550600183600201600089815260200190815260200160002060030181905550610faf565b8260040154871015610ef557826004015483600201600089815260200190815260200160002060000181905550868360020160008560040154815260200190815260200160002060010181905550868360040181905550600183600201600089815260200190815260200160002060030181905550610fae565b808714610fad5760008360020160008381526020019081526020016000206000015490508784600201600084815260200190815260200160002060000181905550818460020160008a8152602001908152602001600020600101819055508784600201600083815260200190815260200160002060010181905550808460020160008a81526020019081526020016000206000018190555060018460020160008a815260200190815260200160002060030181905550505b5b5b5b60008360020160008981526020019081526020016000209050806004016000815480929190610fde90614db1565b919050555060405180604001604052803373ffffffffffffffffffffffffffffffffffffffff168152602001848152508160020160008360040154815260200190815260200160002060008201518160000160006101000a81548173ffffffffffffffffffffffffffffffffffffffff021916908373ffffffffffffffffffffffffffffffffffffffff1602179055506020820151816001015590505061109283856005015461255390919063ffffffff16565b84600501819055506111126110c46001546110b68b876125ed90919063ffffffff16565b61265690919063ffffffff16565b600560003373ffffffffffffffffffffffffffffffffffffffff1673ffffffffffffffffffffffffffffffffffffffff168152602001908152602001600020546125a090919063ffffffff16565b600560003373ffffffffffffffffffffffffffffffffffffffff1673ffffffffffffffffffffffffffffffffffffffff168152602001908152602001600020819055503373ffffffffffffffffffffffffffffffffffffffff167f68c9ac4e1e8cb75e0f0f7798d1f36e66d0af89e12547639884679db4b0830949878c868c86600401546040516111a79594939291906149e4565b60405180910390a2806004015496505050505050505b9392505050565b60006111cf82611ca5565b61120e576040517f08c379a000000000000000000000000000000000000000000000000000000000815260040161120590614841565b60405180910390fd5b6000611219836124d7565b9050600460008573ffffffffffffffffffffffffffffffffffffffff1673ffffffffffffffffffffffffffffffffffffffff16815260200190815260200160002060008260ff1660ff1681526020019081526020016000205491505092915050565b60008054906101000a900473ffffffffffffffffffffffffffffffffffffffff1673ffffffffffffffffffffffffffffffffffffffff163373ffffffffffffffffffffffffffffffffffffffff16146112d357600080fd5b60008054906101000a900473ffffffffffffffffffffffffffffffffffffffff1673ffffffffffffffffffffffffffffffffffffffff167ff8df31144d9c2f0f6b59d69b8b98abd5459d07f2742c4df920b25aae33c6482060405160405180910390a260008060006101000a81548173ffffffffffffffffffffffffffffffffffffffff021916908373ffffffffffffffffffffffffffffffffffffffff160217905550565b600061138484611ca5565b6113c3576040517f08c379a00000000000000000000000000000000000000000000000000000000081526004016113ba90614841565b60405180910390fd5b60006113ce856124d7565b90506000600260008360ff1660ff16815260200190815260200160002060010160009054906101000a900473ffffffffffffffffffffffffffffffffffffffff1690508073ffffffffffffffffffffffffffffffffffffffff1663095ea7b333876040518363ffffffff167c010000000000000000000000000000000000000000000000000000000002815260040161146892919061463d565b602060405180830381600087803b15801561148257600080fd5b505af1158015611496573d6000803e3d6000fd5b505050506040513d601f19601f820116820180604052508101906114ba9190614187565b6114c357600080fd5b8073ffffffffffffffffffffffffffffffffffffffff166323b872dd3330886040518463ffffffff167c010000000000000000000000000000000000000000000000000000000002815260040161151c93929190614606565b602060405180830381600087803b15801561153657600080fd5b505af115801561154a573d6000803e3d6000fd5b505050506040513d601f19601f8201168201806040525081019061156e9190614187565b61157757600080fd5b6115e085600460003373ffffffffffffffffffffffffffffffffffffffff1673ffffffffffffffffffffffffffffffffffffffff16815260200190815260200160002060008560ff1660ff1681526020019081526020016000205461255390919063ffffffff16565b600460003373ffffffffffffffffffffffffffffffffffffffff1673ffffffffffffffffffffffffffffffffffffffff16815260200190815260200160002060008460ff1660ff168152602001908152602001600020819055508160ff163373ffffffffffffffffffffffffffffffffffffffff167fe6afb54b8e489559863bff4028a72b4d357af4d179f50ad8ef1a6fa283338634428989604051611688939291906148cc565b60405180910390a3600061169c33886111c4565b9050808611156116e1576040517f08c379a00000000000000000000000000000000000000000000000000000000081526004016116d890614721565b60405180910390fd5b6000600260008560ff1660ff1681526020019081526020016000209050600061170d828a878b8b612fbc565b9050600081141561177d573373ffffffffffffffffffffffffffffffffffffffff167f2f7ca1775bd15edb1ce64fea50f73137bb2cf2a628ea1b1b65d323b8ce60b22e428b8b8b6000604051611767959493929190614977565b60405180910390a2600095505050505050611bc6565b6000826007015490505b808811801561179a575082600801548811155b156117bf57826006016000828152602001908152602001600020600001549050611787565b6000836009015414156118015787836007018190555087836008018190555060018360060160008a8152602001908152602001600020600301819055506119b0565b826007015488101561187b5782600701548360060160008a81526020019081526020016000206000018190555087836006016000856007015481526020019081526020016000206001018190555087836007018190555060018360060160008a8152602001908152602001600020600301819055506119af565b82600801548811156118f55782600801548360060160008a81526020019081526020016000206001018190555087836006016000856008015481526020019081526020016000206000018190555087836008018190555060018360060160008a8152602001908152602001600020600301819055506119ae565b8088146119ad5760008360060160008381526020019081526020016000206001015490508884600601600084815260200190815260200160002060010181905550818460060160008b8152602001908152602001600020600001819055508884600601600083815260200190815260200160002060000181905550808460060160008b81526020019081526020016000206001018190555060018460060160008b815260200190815260200160002060030181905550505b5b5b5b60008360060160008a815260200190815260200160002090508060040160008154809291906119de90614db1565b919050555060405180604001604052803373ffffffffffffffffffffffffffffffffffffffff168152602001848152508160020160008360040154815260200190815260200160002060008201518160000160006101000a81548173ffffffffffffffffffffffffffffffffffffffff021916908373ffffffffffffffffffffffffffffffffffffffff16021790555060208201518160010155905050611a9283856009015461255390919063ffffffff16565b8460090181905550611b0383600460003373ffffffffffffffffffffffffffffffffffffffff1673ffffffffffffffffffffffffffffffffffffffff16815260200190815260200160002060008a60ff1660ff168152602001908152602001600020546125a090919063ffffffff16565b600460003373ffffffffffffffffffffffffffffffffffffffff1673ffffffffffffffffffffffffffffffffffffffff16815260200190815260200160002060008960ff1660ff168152602001908152602001600020819055503373ffffffffffffffffffffffffffffffffffffffff167febd98b8c66a8f7a62e691e3e5c8fd26378549faabe2f8583574b21654225c855428d868d8660040154604051611baf959493929190614a51565b60405180910390a280600401549750505050505050505b9392505050565b600080611bd984611ca5565b611c18576040517f08c379a0000000000000000000000000000000000000000000000000000000008152600401611c0f90614841565b60405180910390fd5b6000611c23856124d7565b90506000600260008360ff1660ff168152602001908152602001600020905080600201600086815260200190815260200160002060030154816002016000878152602001908152602001600020600401549350935050509250929050565b60008054906101000a900473ffffffffffffffffffffffffffffffffffffffff1681565b600080611cb1836124d7565b905060008160ff1611915050919050565b60008054906101000a900473ffffffffffffffffffffffffffffffffffffffff1673ffffffffffffffffffffffffffffffffffffffff163373ffffffffffffffffffffffffffffffffffffffff1614611d1a57600080fd5b611d2382611ca5565b15611d2d57600080fd5b60ff600360009054906101000a900460ff1660ff1610611d4c57600080fd5b6003600081819054906101000a900460ff1680929190611d6b90614dfa565b91906101000a81548160ff021916908360ff160217905550508160026000600360009054906101000a900460ff1660ff1660ff1681526020019081526020016000206000019080519060200190611dc3929190613fc0565b508060026000600360009054906101000a900460ff1660ff1660ff16815260200190815260200160002060010160006101000a81548173ffffffffffffffffffffffffffffffffffffffff021916908373ffffffffffffffffffffffffffffffffffffffff160217905550600360009054906101000a900460ff1660ff163373ffffffffffffffffffffffffffffffffffffffff167fdf667c3a5ed8d034cf4a4b760a32ef4b3aaa2fb3e0af0905a6a0f61bd2dd18d34285604051611e8992919061489c565b60405180910390a35050565b6000429050611ea384611ca5565b611ee2576040517f08c379a0000000000000000000000000000000000000000000000000000000008152600401611ed9906146c1565b60405180910390fd5b6000611eed856124d7565b90506000600260008360ff1660ff16815260200190815260200160002090506000816002016000878152602001908152602001600020600201600086815260200190815260200160002090503373ffffffffffffffffffffffffffffffffffffffff168160000160009054906101000a900473ffffffffffffffffffffffffffffffffffffffff1673ffffffffffffffffffffffffffffffffffffffff1614611fcb576040517f08c379a0000000000000000000000000000000000000000000000000000000008152600401611fc290614801565b60405180910390fd5b600081600101541415612013576040517f08c379a000000000000000000000000000000000000000000000000000000000815260040161200a906147c1565b60405180910390fd5b61208f6120416001546120338985600101546125ed90919063ffffffff16565b61265690919063ffffffff16565b600560003373ffffffffffffffffffffffffffffffffffffffff1673ffffffffffffffffffffffffffffffffffffffff1681526020019081526020016000205461255390919063ffffffff16565b600560003373ffffffffffffffffffffffffffffffffffffffff1673ffffffffffffffffffffffffffffffffffffffff168152602001908152602001600020819055506120ed816001015483600501546125a090919063ffffffff16565b82600501819055503373ffffffffffffffffffffffffffffffffffffffff167f3432504554e19c64c0706c6d665643c99eedfc006af878fb028dfd76f653b164858984600101548a8a6040516121479594939291906149e4565b60405180910390a2600061217c60015461216e8985600101546125ed90919063ffffffff16565b61265690919063ffffffff16565b9050600560003373ffffffffffffffffffffffffffffffffffffffff1673ffffffffffffffffffffffffffffffffffffffff16815260200190815260200160002054811115612200576040517f08c379a00000000000000000000000000000000000000000000000000000000081526004016121f7906146e1565b60405180910390fd5b61225281600560003373ffffffffffffffffffffffffffffffffffffffff1673ffffffffffffffffffffffffffffffffffffffff168152602001908152602001600020546125a090919063ffffffff16565b600560003373ffffffffffffffffffffffffffffffffffffffff1673ffffffffffffffffffffffffffffffffffffffff168152602001908152602001600020819055508160000160009054906101000a900473ffffffffffffffffffffffffffffffffffffffff1673ffffffffffffffffffffffffffffffffffffffff166108fc829081150290604051600060405180830381858888f193505050501580156122ff573d6000803e3d6000fd5b508160000160009054906101000a900473ffffffffffffffffffffffffffffffffffffffff1673ffffffffffffffffffffffffffffffffffffffff167fd5ca65e1ec4f4864fea7b9c5cb1ec3087a0dbf9c74641db3f6458edf445c4051868360405161236c929190614abe565b60405180910390a2600082600101819055505050505050505050565b60008054906101000a900473ffffffffffffffffffffffffffffffffffffffff1673ffffffffffffffffffffffffffffffffffffffff163373ffffffffffffffffffffffffffffffffffffffff16146123e057600080fd5b600073ffffffffffffffffffffffffffffffffffffffff168173ffffffffffffffffffffffffffffffffffffffff16141561241a57600080fd5b8073ffffffffffffffffffffffffffffffffffffffff1660008054906101000a900473ffffffffffffffffffffffffffffffffffffffff1673ffffffffffffffffffffffffffffffffffffffff167f8be0079c531659141344cd1fd0a4f28419497f9722a3daafe3b4186f6b6457e060405160405180910390a3806000806101000a81548173ffffffffffffffffffffffffffffffffffffffff021916908373ffffffffffffffffffffffffffffffffffffffff16021790555050565b600080600190505b600360009054906101000a900460ff1660ff168160ff1611612548576000600260008360ff1660ff16815260200190815260200160002090506125258482600001613df4565b1561253457819250505061254e565b50808061254090614dfa565b9150506124df565b50600090505b919050565b600081836125619190614b90565b90508281101561259a577f4e487b7100000000000000000000000000000000000000000000000000000000600052600160045260246000fd5b92915050565b6000828211156125d9577f4e487b7100000000000000000000000000000000000000000000000000000000600052600160045260246000fd5b81836125e59190614c71565b905092915050565b6000808314156126005760009050612650565b818361260c9190614c17565b905081838261261b9190614be6565b1461264f577f4e487b7100000000000000000000000000000000000000000000000000000000600052600160045260246000fd5b5b92915050565b600081836126649190614be6565b905092915050565b60008085600701549050600084905060005b6000831415801561268f5750848311155b801561269b5750600082115b15612fae57600088600601600085815260200190815260200160002090506000816003015490505b816004015481111580156126d75750600084115b15612f9757600082600201600083815260200190815260200160002090506000816001015414156127305782600301600081548092919061271790614db1565b9190505550818061272790614db1565b925050506126c3565b6000816001015490508582600101541115612749578590505b80866127559190614c71565b9550808c600901600082825461276b9190614c71565b9250508190555080600460003373ffffffffffffffffffffffffffffffffffffffff1673ffffffffffffffffffffffffffffffffffffffff16815260200190815260200160002060008d60ff1660ff16815260200190815260200160002060008282546127d89190614b90565b925050819055506128066001546127f889846125ed90919063ffffffff16565b61265690919063ffffffff16565b600560003373ffffffffffffffffffffffffffffffffffffffff1673ffffffffffffffffffffffffffffffffffffffff16815260200190815260200160002060008282546128549190614c71565b9250508190555061288260015461287489846125ed90919063ffffffff16565b61265690919063ffffffff16565b600560008460000160009054906101000a900473ffffffffffffffffffffffffffffffffffffffff1673ffffffffffffffffffffffffffffffffffffffff1673ffffffffffffffffffffffffffffffffffffffff16815260200190815260200160002060008282546128f49190614b90565b925050819055508160010154811415612c4c5783600301600081548092919061291c90614db1565b919050555061294c60015461293e8985600101546125ed90919063ffffffff16565b61265690919063ffffffff16565b94506129c485600560008560000160009054906101000a900473ffffffffffffffffffffffffffffffffffffffff1673ffffffffffffffffffffffffffffffffffffffff1673ffffffffffffffffffffffffffffffffffffffff168152602001908152602001600020546125a090919063ffffffff16565b600560008460000160009054906101000a900473ffffffffffffffffffffffffffffffffffffffff1673ffffffffffffffffffffffffffffffffffffffff1673ffffffffffffffffffffffffffffffffffffffff168152602001908152602001600020819055508160000160009054906101000a900473ffffffffffffffffffffffffffffffffffffffff1673ffffffffffffffffffffffffffffffffffffffff166108fc869081150290604051600060405180830381858888f19350505050158015612a95573d6000803e3d6000fd5b50612b038260010154600460003373ffffffffffffffffffffffffffffffffffffffff1673ffffffffffffffffffffffffffffffffffffffff16815260200190815260200160002060008e60ff1660ff168152602001908152602001600020546125a090919063ffffffff16565b600460003373ffffffffffffffffffffffffffffffffffffffff1673ffffffffffffffffffffffffffffffffffffffff16815260200190815260200160002060008d60ff1660ff16815260200190815260200160002081905550600260008c60ff1660ff16815260200190815260200160002060010160009054906101000a900473ffffffffffffffffffffffffffffffffffffffff1673ffffffffffffffffffffffffffffffffffffffff1663a9059cbb3384600101546040518363ffffffff167c0100000000000000000000000000000000000000000000000000000000028152600401612bf492919061463d565b602060405180830381600087803b158015612c0e57600080fd5b505af1158015612c22573d6000803e3d6000fd5b505050506040513d601f19601f82011682018060405250810190612c469190614187565b50612f67565b612c73600154612c6589846125ed90919063ffffffff16565b61265690919063ffffffff16565b9450612ceb85600560008560000160009054906101000a900473ffffffffffffffffffffffffffffffffffffffff1673ffffffffffffffffffffffffffffffffffffffff1673ffffffffffffffffffffffffffffffffffffffff168152602001908152602001600020546125a090919063ffffffff16565b600560008460000160009054906101000a900473ffffffffffffffffffffffffffffffffffffffff1673ffffffffffffffffffffffffffffffffffffffff1673ffffffffffffffffffffffffffffffffffffffff168152602001908152602001600020819055508160000160009054906101000a900473ffffffffffffffffffffffffffffffffffffffff1673ffffffffffffffffffffffffffffffffffffffff166108fc869081150290604051600060405180830381858888f19350505050158015612dbc573d6000803e3d6000fd5b50612e2681600460003373ffffffffffffffffffffffffffffffffffffffff1673ffffffffffffffffffffffffffffffffffffffff16815260200190815260200160002060008e60ff1660ff168152602001908152602001600020546125a090919063ffffffff16565b600460003373ffffffffffffffffffffffffffffffffffffffff1673ffffffffffffffffffffffffffffffffffffffff16815260200190815260200160002060008d60ff1660ff16815260200190815260200160002081905550600260008c60ff1660ff16815260200190815260200160002060010160009054906101000a900473ffffffffffffffffffffffffffffffffffffffff1673ffffffffffffffffffffffffffffffffffffffff1663a9059cbb33836040518363ffffffff167c0100000000000000000000000000000000000000000000000000000000028152600401612f1392919061463d565b602060405180830381600087803b158015612f2d57600080fd5b505af1158015612f41573d6000803e3d6000fd5b505050506040513d601f19601f82011682018060405250810190612f659190614187565b505b80826001016000828254612f7b9190614c71565b925050819055508280612f8d90614db1565b93505050506126c3565b81600001549450848a60070181905550505061267e565b819350505050949350505050565b60008086600301549050600084905060005b600083118015612fde5750848310155b8015612fea5750600082115b15613de557600089600201600085815260200190815260200160002090506000816003015490505b816004015481111580156130265750600084115b15613dbd576000826002016000838152602001908152602001600020905060008160010154141561307f5782600301600081548092919061306690614db1565b9190505550818061307690614db1565b92505050613012565b6000816001015490508582600101541115613098578590505b80866130a49190614c71565b9550808d60050160008282546130ba9190614c71565b9250508190555080600460003373ffffffffffffffffffffffffffffffffffffffff1673ffffffffffffffffffffffffffffffffffffffff16815260200190815260200160002060008d60ff1660ff16815260200190815260200160002060008282546131279190614c71565b9250508190555080600460008460000160009054906101000a900473ffffffffffffffffffffffffffffffffffffffff1673ffffffffffffffffffffffffffffffffffffffff1673ffffffffffffffffffffffffffffffffffffffff16815260200190815260200160002060008d60ff1660ff16815260200190815260200160002060008282546131b89190614b90565b925050819055506131e66001546131d889846125ed90919063ffffffff16565b61265690919063ffffffff16565b600560003373ffffffffffffffffffffffffffffffffffffffff1673ffffffffffffffffffffffffffffffffffffffff16815260200190815260200160002060008282546132349190614b90565b9250508190555081600101548114156138365783600301600081548092919061325c90614db1565b91905055508160000160009054906101000a900473ffffffffffffffffffffffffffffffffffffffff1673ffffffffffffffffffffffffffffffffffffffff167fc39b271767de39268ffc47e261da09279a8a6709ea7948b74e4c7a5e7217fdac428e848b886040516132d39594939291906149e4565b60405180910390a26133026001546132f489846125ed90919063ffffffff16565b61265690919063ffffffff16565b9450600560003373ffffffffffffffffffffffffffffffffffffffff1673ffffffffffffffffffffffffffffffffffffffff16815260200190815260200160002054851115613386576040517f08c379a000000000000000000000000000000000000000000000000000000000815260040161337d90614701565b60405180910390fd5b6133d885600560003373ffffffffffffffffffffffffffffffffffffffff1673ffffffffffffffffffffffffffffffffffffffff168152602001908152602001600020546125a090919063ffffffff16565b600560003373ffffffffffffffffffffffffffffffffffffffff1673ffffffffffffffffffffffffffffffffffffffff168152602001908152602001600020819055503373ffffffffffffffffffffffffffffffffffffffff166108fc869081150290604051600060405180830381858888f19350505050158015613461573d6000803e3d6000fd5b508160000160009054906101000a900473ffffffffffffffffffffffffffffffffffffffff1673ffffffffffffffffffffffffffffffffffffffff167fd5ca65e1ec4f4864fea7b9c5cb1ec3087a0dbf9c74641db3f6458edf445c405142876040516134ce929190614abe565b60405180910390a280600460008460000160009054906101000a900473ffffffffffffffffffffffffffffffffffffffff1673ffffffffffffffffffffffffffffffffffffffff1673ffffffffffffffffffffffffffffffffffffffff16815260200190815260200160002060008d60ff1660ff168152602001908152602001600020541015613593576040517f08c379a000000000000000000000000000000000000000000000000000000000815260040161358a906147a1565b60405180910390fd5b61362081600460008560000160009054906101000a900473ffffffffffffffffffffffffffffffffffffffff1673ffffffffffffffffffffffffffffffffffffffff1673ffffffffffffffffffffffffffffffffffffffff16815260200190815260200160002060008e60ff1660ff168152602001908152602001600020546125a090919063ffffffff16565b600460008460000160009054906101000a900473ffffffffffffffffffffffffffffffffffffffff1673ffffffffffffffffffffffffffffffffffffffff1673ffffffffffffffffffffffffffffffffffffffff16815260200190815260200160002060008d60ff1660ff168152602001908152602001600020819055508a60ff168260000160009054906101000a900473ffffffffffffffffffffffffffffffffffffffff1673ffffffffffffffffffffffffffffffffffffffff167ffb43d11d08dc11b540fd978eddf3b0e7ff9dc3bc3a31406ac9abfce1f0712894428f85604051613710939291906148cc565b60405180910390a360011515600260008d60ff1660ff16815260200190815260200160002060010160009054906101000a900473ffffffffffffffffffffffffffffffffffffffff1673ffffffffffffffffffffffffffffffffffffffff1663a9059cbb8460000160009054906101000a900473ffffffffffffffffffffffffffffffffffffffff16846040518363ffffffff167c01000000000000000000000000000000000000000000000000000000000281526004016137d392919061463d565b602060405180830381600087803b1580156137ed57600080fd5b505af1158015613801573d6000803e3d6000fd5b505050506040513d601f19601f820116820180604052508101906138259190614187565b15151461383157600080fd5b613d8d565b61385d60015461384f89846125ed90919063ffffffff16565b61265690919063ffffffff16565b9450600560003373ffffffffffffffffffffffffffffffffffffffff1673ffffffffffffffffffffffffffffffffffffffff168152602001908152602001600020548511156138e1576040517f08c379a00000000000000000000000000000000000000000000000000000000081526004016138d890614781565b60405180910390fd5b61393385600560003373ffffffffffffffffffffffffffffffffffffffff1673ffffffffffffffffffffffffffffffffffffffff168152602001908152602001600020546125a090919063ffffffff16565b600560003373ffffffffffffffffffffffffffffffffffffffff1673ffffffffffffffffffffffffffffffffffffffff168152602001908152602001600020819055503373ffffffffffffffffffffffffffffffffffffffff166108fc869081150290604051600060405180830381858888f193505050501580156139bc573d6000803e3d6000fd5b508160000160009054906101000a900473ffffffffffffffffffffffffffffffffffffffff1673ffffffffffffffffffffffffffffffffffffffff167fd5ca65e1ec4f4864fea7b9c5cb1ec3087a0dbf9c74641db3f6458edf445c40514287604051613a29929190614abe565b60405180910390a280600460008460000160009054906101000a900473ffffffffffffffffffffffffffffffffffffffff1673ffffffffffffffffffffffffffffffffffffffff1673ffffffffffffffffffffffffffffffffffffffff16815260200190815260200160002060008d60ff1660ff168152602001908152602001600020541015613aee576040517f08c379a0000000000000000000000000000000000000000000000000000000008152600401613ae5906146a1565b60405180910390fd5b613b7b81600460008560000160009054906101000a900473ffffffffffffffffffffffffffffffffffffffff1673ffffffffffffffffffffffffffffffffffffffff1673ffffffffffffffffffffffffffffffffffffffff16815260200190815260200160002060008e60ff1660ff168152602001908152602001600020546125a090919063ffffffff16565b600460008460000160009054906101000a900473ffffffffffffffffffffffffffffffffffffffff1673ffffffffffffffffffffffffffffffffffffffff1673ffffffffffffffffffffffffffffffffffffffff16815260200190815260200160002060008d60ff1660ff168152602001908152602001600020819055508a60ff168260000160009054906101000a900473ffffffffffffffffffffffffffffffffffffffff1673ffffffffffffffffffffffffffffffffffffffff167ffb43d11d08dc11b540fd978eddf3b0e7ff9dc3bc3a31406ac9abfce1f0712894428f85604051613c6b939291906148cc565b60405180910390a360011515600260008d60ff1660ff16815260200190815260200160002060010160009054906101000a900473ffffffffffffffffffffffffffffffffffffffff1673ffffffffffffffffffffffffffffffffffffffff1663a9059cbb8460000160009054906101000a900473ffffffffffffffffffffffffffffffffffffffff16846040518363ffffffff167c0100000000000000000000000000000000000000000000000000000000028152600401613d2e92919061463d565b602060405180830381600087803b158015613d4857600080fd5b505af1158015613d5c573d6000803e3d6000fd5b505050506040513d601f19601f82011682018060405250810190613d809190614187565b151514613d8c57600080fd5b5b80826001016000828254613da19190614c71565b925050819055508280613db390614db1565b9350505050613012565b816001015494506000826001015414613dde5781600101548b600301819055505b5050612fce565b81935050505095945050505050565b6000808390506000839050808054613e0b90614d4e565b9050818054613e1990614d4e565b905014613e2b57600092505050613fba565b60005b82518160ff161015613fb257818160ff168154613e4a90614d4e565b8110613e7f577f4e487b7100000000000000000000000000000000000000000000000000000000600052603260045260246000fd5b815460011615613e9e5790600052602060002090602091828204019190065b9054901a7f0100000000000000000000000000000000000000000000000000000000000000027effffffffffffffffffffffffffffffffffffffffffffffffffffffffffffff1916838260ff1681518110613f22577f4e487b7100000000000000000000000000000000000000000000000000000000600052603260045260246000fd5b60200101517f010000000000000000000000000000000000000000000000000000000000000090047f0100000000000000000000000000000000000000000000000000000000000000027effffffffffffffffffffffffffffffffffffffffffffffffffffffffffffff191614613f9f5760009350505050613fba565b8080613faa90614dfa565b915050613e2e565b506001925050505b92915050565b828054613fcc90614d4e565b90600052602060002090601f016020900481019282613fee5760008555614035565b82601f1061400757805160ff1916838001178555614035565b82800160010185558215614035579182015b82811115614034578251825591602001919060010190614019565b5b5090506140429190614046565b5090565b5b8082111561405f576000816000905550600101614047565b5090565b600061407661407184614b43565b614b1e565b90508281526020810184848401111561408e57600080fd5b614099848285614d0c565b509392505050565b6000813590506140b0816154cb565b92915050565b6000815190506140c5816154e2565b92915050565b600082601f8301126140dc57600080fd5b81356140ec848260208601614063565b91505092915050565b600081359050614104816154f9565b92915050565b60006020828403121561411c57600080fd5b600061412a848285016140a1565b91505092915050565b6000806040838503121561414657600080fd5b6000614154858286016140a1565b925050602083013567ffffffffffffffff81111561417157600080fd5b61417d858286016140cb565b9150509250929050565b60006020828403121561419957600080fd5b60006141a7848285016140b6565b91505092915050565b6000602082840312156141c257600080fd5b600082013567ffffffffffffffff8111156141dc57600080fd5b6141e8848285016140cb565b91505092915050565b6000806040838503121561420457600080fd5b600083013567ffffffffffffffff81111561421e57600080fd5b61422a858286016140cb565b925050602061423b858286016140a1565b9150509250929050565b6000806040838503121561425857600080fd5b600083013567ffffffffffffffff81111561427257600080fd5b61427e858286016140cb565b925050602061428f858286016140f5565b9150509250929050565b6000806000606084860312156142ae57600080fd5b600084013567ffffffffffffffff8111156142c857600080fd5b6142d4868287016140cb565b93505060206142e5868287016140f5565b92505060406142f6868287016140f5565b9150509250925092565b61430981614ca5565b82525050565b61431881614cb7565b82525050565b61432781614cfa565b82525050565b600061433882614b74565b6143428185614b7f565b9350614352818560208601614d1b565b61435b81614ee0565b840191505092915050565b6000614373604e83614b7f565b915061437e82614ef1565b606082019050919050565b6000614396605a83614b7f565b91506143a182614f66565b606082019050919050565b60006143b9603083614b7f565b91506143c482614fdb565b604082019050919050565b60006143dc603883614b7f565b91506143e78261502a565b604082019050919050565b60006143ff603883614b7f565b915061440a82615079565b604082019050919050565b6000614422600383614b7f565b915061442d826150c8565b602082019050919050565b6000614445604b83614b7f565b9150614450826150f1565b606082019050919050565b6000614468602c83614b7f565b915061447382615166565b604082019050919050565b600061448b602b83614b7f565b9150614496826151b5565b604082019050919050565b60006144ae603883614b7f565b91506144b982615204565b604082019050919050565b60006144d1605a83614b7f565b91506144dc82615253565b606082019050919050565b60006144f4602383614b7f565b91506144ff826152c8565b604082019050919050565b6000614517602e83614b7f565b915061452282615317565b604082019050919050565b600061453a602a83614b7f565b915061454582615366565b604082019050919050565b600061455d603383614b7f565b9150614568826153b5565b604082019050919050565b6000614580602783614b7f565b915061458b82615404565b604082019050919050565b60006145a3603083614b7f565b91506145ae82615453565b604082019050919050565b60006145c6600483614b7f565b91506145d1826154a2565b602082019050919050565b6145e581614ce3565b82525050565b60006020820190506146006000830184614300565b92915050565b600060608201905061461b6000830186614300565b6146286020830185614300565b61463560408301846145dc565b949350505050565b60006040820190506146526000830185614300565b61465f60208301846145dc565b9392505050565b600060208201905061467b600083018461430f565b92915050565b6000602082019050818103600083015261469a81614366565b9050919050565b600060208201905081810360008301526146ba81614389565b9050919050565b600060208201905081810360008301526146da816143ac565b9050919050565b600060208201905081810360008301526146fa816143cf565b9050919050565b6000602082019050818103600083015261471a816143f2565b9050919050565b6000602082019050818103600083015261473a81614438565b9050919050565b6000602082019050818103600083015261475a8161445b565b9050919050565b6000602082019050818103600083015261477a8161447e565b9050919050565b6000602082019050818103600083015261479a816144a1565b9050919050565b600060208201905081810360008301526147ba816144c4565b9050919050565b600060208201905081810360008301526147da816144e7565b9050919050565b600060208201905081810360008301526147fa8161450a565b9050919050565b6000602082019050818103600083015261481a8161452d565b9050919050565b6000602082019050818103600083015261483a81614550565b9050919050565b6000602082019050818103600083015261485a81614573565b9050919050565b6000602082019050818103600083015261487a81614596565b9050919050565b600060208201905061489660008301846145dc565b92915050565b60006040820190506148b160008301856145dc565b81810360208301526148c3818461432d565b90509392505050565b60006060820190506148e160008301866145dc565b81810360208301526148f3818561432d565b905061490260408301846145dc565b949350505050565b600060c08201905061491f60008301886145dc565b8181036020830152614931818761432d565b905061494060408301866145dc565b61494d60608301856145dc565b61495a608083018461431e565b81810360a083015261496b81614415565b90509695505050505050565b600060c08201905061498c60008301886145dc565b818103602083015261499e818761432d565b90506149ad60408301866145dc565b6149ba60608301856145dc565b6149c7608083018461431e565b81810360a08301526149d8816145b9565b90509695505050505050565b600060c0820190506149f960008301886145dc565b8181036020830152614a0b818761432d565b9050614a1a60408301866145dc565b614a2760608301856145dc565b614a3460808301846145dc565b81810360a0830152614a4581614415565b90509695505050505050565b600060c082019050614a6660008301886145dc565b8181036020830152614a78818761432d565b9050614a8760408301866145dc565b614a9460608301856145dc565b614aa160808301846145dc565b81810360a0830152614ab2816145b9565b90509695505050505050565b6000604082019050614ad360008301856145dc565b614ae060208301846145dc565b9392505050565b6000606082019050614afc60008301866145dc565b614b0960208301856145dc565b614b1660408301846145dc565b949350505050565b6000614b28614b39565b9050614b348282614d80565b919050565b6000604051905090565b600067ffffffffffffffff821115614b5e57614b5d614eb1565b5b614b6782614ee0565b9050602081019050919050565b600081519050919050565b600082825260208201905092915050565b6000614b9b82614ce3565b9150614ba683614ce3565b9250827fffffffffffffffffffffffffffffffffffffffffffffffffffffffffffffffff03821115614bdb57614bda614e24565b5b828201905092915050565b6000614bf182614ce3565b9150614bfc83614ce3565b925082614c0c57614c0b614e53565b5b828204905092915050565b6000614c2282614ce3565b9150614c2d83614ce3565b9250817fffffffffffffffffffffffffffffffffffffffffffffffffffffffffffffffff0483118215151615614c6657614c65614e24565b5b828202905092915050565b6000614c7c82614ce3565b9150614c8783614ce3565b925082821015614c9a57614c99614e24565b5b828203905092915050565b6000614cb082614cc3565b9050919050565b60008115159050919050565b600073ffffffffffffffffffffffffffffffffffffffff82169050919050565b6000819050919050565b600060ff82169050919050565b6000614d0582614ce3565b9050919050565b82818337600083830152505050565b60005b83811015614d39578082015181840152602081019050614d1e565b83811115614d48576000848401525b50505050565b60006002820490506001821680614d6657607f821691505b60208210811415614d7a57614d79614e82565b5b50919050565b614d8982614ee0565b810181811067ffffffffffffffff82111715614da857614da7614eb1565b5b80604052505050565b6000614dbc82614ce3565b91507fffffffffffffffffffffffffffffffffffffffffffffffffffffffffffffffff821415614def57614dee614e24565b5b600182019050919050565b6000614e0582614ced565b915060ff821415614e1957614e18614e24565b5b600182019050919050565b7f4e487b7100000000000000000000000000000000000000000000000000000000600052601160045260246000fd5b7f4e487b7100000000000000000000000000000000000000000000000000000000600052601260045260246000fd5b7f4e487b7100000000000000000000000000000000000000000000000000000000600052602260045260246000fd5b7f4e487b7100000000000000000000000000000000000000000000000000000000600052604160045260246000fd5b6000601f19601f8301169050919050565b7f65746865722062616c616e636520666f72206d73672e73656e6465722069732060008201527f6e6f7420656e6f75676820746f20636f76657220616d6f756e74202a2070726960208201527f6365496e576569206572726f7236000000000000000000000000000000000000604082015250565b7f746f6b656e20616d6f756e74206c657373207468616e2073656e64657220746f60008201527f6b656e2062616c616e63652053656c6c4c696d69744f7264657246756c66696c60208201527f6c6564207769746864726177546f6b656e20206572726f723133000000000000604082015250565b7f746f6b656e206973206e6f74207265666572656e63656420696e20746865206560008201527f786368616e676520206572726f72313500000000000000000000000000000000602082015250565b7f6574686572416d6f756e74496e576569206c657373207468616e2073656e646560008201527f722065746865722062616c616e636520206572726f7231370000000000000000602082015250565b7f6574686572416d6f756e74496e576569206c657373207468616e2073656e646560008201527f722065746865722062616c616e636520206572726f7231300000000000000000602082015250565b7f6275790000000000000000000000000000000000000000000000000000000000600082015250565b7f746f6b656e2062616c616e636520666f72206d73672e73656e6465722069732060008201527f6e6f7420656e6f75676820746f20636f766572207468652073656c6c206f726460208201527f657220206572726f723134000000000000000000000000000000000000000000604082015250565b7f746865206f726465722068617320616c7265616479206265656e2063616e636560008201527f6c656420206572726f7232300000000000000000000000000000000000000000602082015250565b7f746865206f6666657220747261646572206973206e6f74207468652073656e6460008201527f657220206572726f723139000000000000000000000000000000000000000000602082015250565b7f6574686572416d6f756e74496e576569206c657373207468616e2073656e646560008201527f722065746865722062616c616e636520206572726f7231320000000000000000602082015250565b7f746f6b656e20616d6f756e74206c657373207468616e2073656e64657220746f60008201527f6b656e2062616c616e63652053656c6c4c696d69744f7264657246756c66696c60208201527f6c6564207769746864726177546f6b656e20206572726f723131000000000000604082015250565b7f746865206f726465722068617320616c7265616479206265656e2063616e636560008201527f6c65640000000000000000000000000000000000000000000000000000000000602082015250565b7f746f6b656e206973206e6f74207265666572656e63656420696e20746865206560008201527f786368616e6765206572726f7235000000000000000000000000000000000000602082015250565b7f746865206f6666657220747261646572206973206e6f74207468652073656e6460008201527f6572206572726f72313600000000000000000000000000000000000000000000602082015250565b7f746f6b656e20616d6f756e74206c657373207468616e2073656e64657220746f60008201527f6b656e2062616c616e6365206572726f72323000000000000000000000000000602082015250565b7f746f6b656e206973206e6f74207265666572656e63656420696e20746865206560008201527f786368616e676500000000000000000000000000000000000000000000000000602082015250565b7f746f6b656e206973206e6f74207265666572656e63656420696e20746865206560008201527f786368616e676520206572726f72313800000000000000000000000000000000602082015250565b7f73656c6c00000000000000000000000000000000000000000000000000000000600082015250565b6154d481614ca5565b81146154df57600080fd5b50565b6154eb81614cb7565b81146154f657600080fd5b50565b61550281614ce3565b811461550d57600080fd5b5056fea2646970667358221220559291ad82c2b85e05b5a2af4472ab9725368e8e45711c5a75d3e89a93f6f78964736f6c63430008040033",
  "immutableReferences": {},
  "source": "//SPDX-License-Identifier: Unlicense\r\npragma solidity ^0.8.0;\r\n\r\nimport './FixedSupplyToken.sol';\r\nimport './Ownable.sol';\r\nimport './SafeMath.sol';\r\n\r\ncontract Exchange is Ownable {\r\n\r\n    using SafeMath for uint256;\r\n\r\n    uint weiValue = 10**uint(18);\r\n\r\n    struct Offer {\r\n        address trader;\r\n        uint amount;\r\n    }\r\n\r\n    struct OrderBook {\r\n\r\n        uint higherPrice;\r\n        uint lowerPrice;\r\n\r\n        mapping(uint => Offer) offers;\r\n\r\n        //to represent a queue\r\n        //offers_start == 1 ? an offer exists in the queue\r\n        uint offers_start;\r\n        uint offers_end;\r\n    }\r\n\r\n    struct Token {\r\n        string symbolName;\r\n\r\n        address tokenContract;\r\n\r\n        // price is the key for order book linkedlist\r\n        mapping(uint => OrderBook) buyOrderBook;\r\n        //HEAD of the linked list for the buy order book\r\n        uint highestBuyPrice;\r\n        //TAIL of the linked list for the buy order book\r\n        uint lowestBuyPrice;\r\n        // buy amount across all the book\r\n        uint amountBuy;\r\n\r\n        // price is the key for order book linkedlist\r\n        mapping(uint => OrderBook) sellOrderBook;\r\n        //HEAD of the linked list for the sell order book\r\n        uint lowestSellPrice;\r\n        //TAIL of the linked list for the sell order book\r\n        uint highestSellPrice;\r\n        // sell amount across all the book\r\n        uint amountSell;\r\n    }\r\n\r\n    // support a maximum of 255 contracts as we start from 1\r\n    mapping(uint8 => Token) tokens;\r\n    uint8 tokenIndex;\r\n\r\n    mapping(address => mapping(uint8 => uint)) tokenBalancesForAddress;\r\n\r\n    mapping(address => uint) etherBalanceForAddress;\r\n\r\n    //////////////\r\n    /// EVENTS ///\r\n    //////////////\r\n\r\n    event TokenAdded(address indexed _initiator, uint _timestamp, uint8 indexed _tokenIndex, string _symbolName);\r\n\r\n    event TokenDeposited(address indexed _initiator, uint _timestamp, uint8 indexed _tokenIndex, string _symbolName, uint _amount);\r\n\r\n    event TokenWithdrawn(address indexed _initiator, uint _timestamp, uint8 indexed _tokenIndex, string _symbolName, uint _amount);\r\n\r\n    event EtherDeposited(address indexed _initiator, uint _timestamp, uint _amountInWei);\r\n\r\n    event EtherWithdrawn(address indexed _initiator, uint _timestamp, uint _amountInWei);\r\n\r\n    ////////////////////\r\n    /// ORDER EVENTS ///\r\n    ////////////////////\r\n\r\n    event BuyLimitOrderCreated(address indexed _who, uint timestamp, string _symbolName, uint _amountInWei, uint _priceInWei, uint _orderKey, string orderType);\r\n\r\n    event SellLimitOrderCreated(address indexed _who, uint timestamp, string _symbolName, uint _amountInWei, uint _priceInWei, uint _orderKey, string orderType);\r\n\r\n    event BuyLimitOrderCanceled(address indexed _who, uint timestamp, string _symbolName, uint _amountInWei, uint _priceInWei, uint _orderKey, string orderType);\r\n\r\n    event SellLimitOrderCanceled(address indexed _who, uint timestamp, string _symbolName, uint _amountInWei, uint _priceInWei, uint _orderKey, string orderType);\r\n\r\n    event BuyLimitOrderFulfilled(address indexed _who, uint timestamp, string _symbolName, uint _amountInWei, uint _priceInWei, uint _orderKey, string orderType);\r\n\r\n    event SellLimitOrderFulfilled(address indexed _who, uint timestamp, string _symbolName, uint _amountInWei, uint _priceInWei, uint _orderKey, string orderType);\r\n\r\n    ////////////////////////////////\r\n    /// ETHER DEPOSIT & WITHDRAW ///\r\n    ////////////////////////////////\r\n\r\n    // function depositEther() public payable {\r\n    //     etherBalanceForAddress[msg.sender] = etherBalanceForAddress[msg.sender].add(msg.value);\r\n    //     emit EtherDeposited(msg.sender, now, msg.value);\r\n    // }\r\n\r\n    // function withdrawEther(uint amountInWei) public {\r\n    //     require(\r\n    //         amountInWei <= etherBalanceForAddress[msg.sender],\r\n    //         \"amountInWei less than sender ether balance \"\r\n    //     );\r\n    //     etherBalanceForAddress[msg.sender] = etherBalanceForAddress[msg.sender].sub(amountInWei);\r\n    //     msg.sender.transfer(amountInWei);\r\n\r\n    //     emit EtherWithdrawn(msg.sender, now, amountInWei);\r\n    // }\r\n\r\n\r\n    function getBalanceInWei() public view returns (uint) {\r\n        return etherBalanceForAddress[msg.sender];\r\n    }\r\n\r\n    ////////////////////////\r\n    /// TOKEN MANAGEMENT ///\r\n    ////////////////////////\r\n\r\n    // Only admin function\r\n    function addToken(string memory symbolName, address tokenContract) public onlyOwner {\r\n        require(!hasToken(symbolName));\r\n        require(tokenIndex < 255);\r\n\r\n        tokenIndex ++;\r\n        tokens[tokenIndex].symbolName = symbolName;\r\n        tokens[tokenIndex].tokenContract = tokenContract;\r\n        emit TokenAdded(msg.sender, block.timestamp, tokenIndex, symbolName);\r\n    }\r\n\r\n    function hasToken(string memory symbolName) public view returns (bool) {\r\n        uint8 index = getSymbolIndex(symbolName);\r\n        return (index > 0);\r\n    }\r\n\r\n    function getSymbolIndex(string memory symbolName) internal view returns (uint8) {\r\n        for (uint8 i = 1; i <= tokenIndex; i++) {\r\n            Token storage token = tokens[i];\r\n            if (stringsEqual(symbolName, token.symbolName)) {\r\n                return i;\r\n            }\r\n        }\r\n        return 0;\r\n    }\r\n\r\n    function stringsEqual(string memory strA, string storage strB) internal view returns (bool) {\r\n        bytes memory strA_bytes = bytes(strA);\r\n        bytes storage strB_bytes = bytes(strB);\r\n\r\n        if (strB_bytes.length != strB_bytes.length) {\r\n            return false;\r\n        }\r\n        for (uint8 i = 0; i < strA_bytes.length; i++) {\r\n            if (strA_bytes[i] != strB_bytes[i]) {\r\n                return false;\r\n            }\r\n        }\r\n        return true;\r\n    }\r\n\r\n\r\n    ////////////////////////////////\r\n    /// TOKEN DEPOSIT & WITHDRAW ///\r\n    ////////////////////////////////\r\n\r\n    // function depositToken(string symbolName, uint amount) public {\r\n    //     require(hasToken(symbolName), \"token is not referenced in the exchange\");\r\n    //     uint8 idx = getSymbolIndex(symbolName);\r\n    //     ERC20Interface token = ERC20Interface(tokens[idx].tokenContract);\r\n    //     require(token.transferFrom(msg.sender, address(this), amount));\r\n    //     tokenBalancesForAddress[msg.sender][idx] = tokenBalancesForAddress[msg.sender][idx].add(amount);\r\n    //     emit TokenDeposited(msg.sender, now, idx, symbolName, amount);\r\n    // }\r\n\r\n    // function withdrawToken(string symbolName, uint amount) public {\r\n    //     require(hasToken(symbolName), \"token is not referenced in the exchange\");\r\n    //     uint8 idx = getSymbolIndex(symbolName);\r\n    //     uint tokenBalance = tokenBalancesForAddress[msg.sender][idx];\r\n    //     require(tokenBalance >= amount, \"token amount less than sender token balance\");\r\n    //     tokenBalancesForAddress[msg.sender][idx] = tokenBalancesForAddress[msg.sender][idx].sub(amount);\r\n    //     emit TokenWithdrawn(msg.sender, now, idx, symbolName, amount);\r\n    //     ERC20Interface token = ERC20Interface(tokens[idx].tokenContract);\r\n    //     require(token.transfer(msg.sender, amount));\r\n    // }\r\n\r\n    function getBalanceToken(address _account, string memory symbolName) public view returns (uint) {\r\n        require(hasToken(symbolName), \"token is not referenced in the exchange\");\r\n\r\n        uint8 idx = getSymbolIndex(symbolName);\r\n        return tokenBalancesForAddress[_account][idx];\r\n    }\r\n    /* function getBalanceToken(string symbolName) public view returns (uint) {\r\n        require(hasToken(symbolName), \"token is not referenced in the exchange\");\r\n\r\n        uint8 idx = getSymbolIndex(symbolName);\r\n        return tokenBalancesForAddress[msg.sender][idx];\r\n    } */\r\n\r\n    /////////////////////////////\r\n    /// ORDER BOOK MANAGEMENT ///\r\n    /////////////////////////////\r\n\r\n    ///////// BUY ORDER /////////\r\n\r\n    function getBuyOrderBookPricesAndAmount(string memory symbolName) public view returns (uint, uint, uint) {\r\n        require(hasToken(symbolName), \"token is not referenced in the exchange\");\r\n\r\n        uint8 idx = getSymbolIndex(symbolName);\r\n        Token storage token = tokens[idx];\r\n        return (token.highestBuyPrice, token.lowestBuyPrice, token.amountBuy);\r\n    }\r\n\r\n    function getBuyOrderBookOffersStartAndEnd(string memory symbolName, uint priceInWei) public view returns (uint, uint) {\r\n        require(hasToken(symbolName), \"token is not referenced in the exchange\");\r\n        uint8 idx = getSymbolIndex(symbolName);\r\n        Token storage token = tokens[idx];\r\n        return (token.buyOrderBook[priceInWei].offers_start, token.buyOrderBook[priceInWei].offers_end);\r\n    }\r\n\r\n    function getBuyOrderBookOffersOrderTraderAndAmount(string memory symbolName, uint priceInWei, uint offerIndex) public view returns (address, uint) {\r\n        require(hasToken(symbolName), \"token is not referenced in the exchange\");\r\n        uint8 idx = getSymbolIndex(symbolName);\r\n        Token storage token = tokens[idx];\r\n        OrderBook storage orderBook = token.buyOrderBook[priceInWei];\r\n        Offer storage offer = orderBook.offers[offerIndex];\r\n        return (offer.trader, offer.amount);\r\n    }\r\n\r\n    function matchSellOrder(Token storage token, uint8 idx, uint amount, uint priceInWei) internal returns (uint) {\r\n        uint currentSellPrice = token.lowestSellPrice;\r\n        uint remainingAmount = amount;\r\n        uint etherAmountInWei;\r\n        while (currentSellPrice != 0 && currentSellPrice <= priceInWei && remainingAmount > 0) {\r\n            OrderBook storage sellOrderBook = token.sellOrderBook[currentSellPrice];\r\n            uint offer_idx = sellOrderBook.offers_start;\r\n            while (offer_idx <= sellOrderBook.offers_end && remainingAmount > 0) {\r\n                Offer storage offer = sellOrderBook.offers[offer_idx];\r\n                // skip the canceled order\r\n                if (offer.amount == 0) {\r\n                    sellOrderBook.offers_start++;\r\n                    offer_idx ++;\r\n                    continue;\r\n                }\r\n                // 1. take no more than remainingAmount\r\n                uint minAmount = offer.amount;\r\n                if (offer.amount > remainingAmount) {\r\n                    minAmount = remainingAmount;\r\n                }\r\n                remainingAmount -= minAmount;\r\n                token.amountSell -= minAmount;\r\n                // tokens increases for the buyer\r\n                tokenBalancesForAddress[msg.sender][idx] += minAmount;\r\n                // ether changes hands\r\n                etherBalanceForAddress[msg.sender] -= minAmount.mul(currentSellPrice).div(weiValue);\r\n                etherBalanceForAddress[offer.trader] += minAmount.mul(currentSellPrice).div(weiValue);\r\n                // 2. partial or complete order fulfilled ?\r\n                if (minAmount == offer.amount) { \r\n                    sellOrderBook.offers_start ++;\r\n                    // emit SellLimitOrderFulfilled(offer.trader, timestamp, symbolName, offer.amount, currentSellPrice, offer_idx, \"sell\");\r\n                    // auto withdraw - withdrawEther\r\n                    etherAmountInWei = offer.amount.mul(currentSellPrice).div(weiValue);\r\n                    // require( etherAmountInWei <= etherBalanceForAddress[offer.trader], \"etherAmountInWei less than sender ether balance error1\" );\r\n                    etherBalanceForAddress[offer.trader] = etherBalanceForAddress[offer.trader].sub(etherAmountInWei);\r\n                    payable(offer.trader).transfer(etherAmountInWei);\r\n                    // emit EtherWithdrawn(offer.trader, timestamp, etherAmountInWei);\r\n                    // auto withdraw - withdrawToken\r\n                    // require(tokenBalancesForAddress[msg.sender][idx] >= offer.amount, \"token amount less than sender token balance SellLimitOrderFulfilled withdrawToken error2\");\r\n                    tokenBalancesForAddress[msg.sender][idx] = tokenBalancesForAddress[msg.sender][idx].sub(offer.amount);\r\n                    // emit TokenWithdrawn(msg.sender, timestamp, idx, symbolName, offer.amount);\r\n                    ERC20Interface(tokens[idx].tokenContract).transfer(msg.sender, offer.amount);\r\n                    // require(ERC20Interface(tokens[idx].tokenContract).transfer(msg.sender, offer.amount) == true);\r\n                } else {\r\n                    // auto withdraw - withdrawEther\r\n                    etherAmountInWei = minAmount.mul(currentSellPrice).div(weiValue);\r\n                    // require( etherAmountInWei <= etherBalanceForAddress[offer.trader], \"etherAmountInWei less than sender ether balance error3\" );\r\n                    etherBalanceForAddress[offer.trader] = etherBalanceForAddress[offer.trader].sub(etherAmountInWei);\r\n                    payable(offer.trader).transfer(etherAmountInWei);\r\n                    // emit EtherWithdrawn(offer.trader, timestamp, etherAmountInWei);\r\n                    // auto withdraw - withdrawToken\r\n                    // require(tokenBalancesForAddress[msg.sender][idx] >= minAmount, \"token amount less than sender token balance SellLimitOrderFulfilled withdrawToken error4\");\r\n                    tokenBalancesForAddress[msg.sender][idx] = tokenBalancesForAddress[msg.sender][idx].sub(minAmount);\r\n                    // emit TokenWithdrawn(msg.sender, timestamp, idx, symbolName, minAmount);\r\n                    ERC20Interface(tokens[idx].tokenContract).transfer(msg.sender, minAmount);\r\n                    // require(ERC20Interface(tokens[idx].tokenContract).transfer(msg.sender, minAmount) == true);\r\n                }\r\n                offer.amount -= minAmount;\r\n                // 3. move to the next offer\r\n                offer_idx ++;\r\n            }\r\n            currentSellPrice = sellOrderBook.higherPrice;\r\n            token.lowestSellPrice = currentSellPrice;\r\n        }\r\n        return remainingAmount;\r\n    }\r\n\r\n    function buyToken(string memory symbolName, uint amount, uint priceInWei) public payable returns (uint) {\r\n        uint timestamp = block.timestamp;\r\n        require(hasToken(symbolName), \"token is not referenced in the exchange error5\");\r\n        // deposit part\r\n        etherBalanceForAddress[msg.sender] = etherBalanceForAddress[msg.sender].add(msg.value);\r\n        emit EtherDeposited(msg.sender, timestamp, msg.value);\r\n\r\n        require(etherBalanceForAddress[msg.sender] >= amount.mul(priceInWei).div(weiValue),\r\n            \"ether balance for msg.sender is not enough to cover amount * priceInWei error6\");\r\n\r\n        uint8 idx = getSymbolIndex(symbolName);\r\n        Token storage token = tokens[idx];\r\n        // 1. check that no matching sell orders. priceInWei <= priceInWei in sell orders\r\n        uint remainingAmount = matchSellOrder(token, idx, amount, priceInWei);\r\n\r\n        if (remainingAmount == 0) {\r\n            emit BuyLimitOrderFulfilled(msg.sender, timestamp, symbolName, amount, priceInWei, 0, \"buy\");\r\n            // auto withdraw //\r\n            return 0;\r\n        }\r\n\r\n        // 2. place remaining unfulfilled order quantity at price in the buy order list. ordered by descending order\r\n        uint currentPrice = token.highestBuyPrice;\r\n        while (priceInWei < currentPrice && priceInWei >= token.lowestBuyPrice) {\r\n            currentPrice = token.buyOrderBook[currentPrice].lowerPrice;\r\n        }\r\n\r\n        //3. Found the index in the buyOrderBook. Now need to insert it.\r\n        //3.a case if first buy order in the buy order book\r\n        if (token.amountBuy == 0) {\r\n            token.lowestBuyPrice = priceInWei;\r\n            token.highestBuyPrice = priceInWei;\r\n            token.buyOrderBook[priceInWei].offers_start = 1;\r\n            // to mention a new offer at this price\r\n        }\r\n        //3.b case if priceInWei is the highest price (new head of the list) or first order\r\n        else if (priceInWei > token.highestBuyPrice) {\r\n            token.buyOrderBook[priceInWei].lowerPrice = token.highestBuyPrice;\r\n            token.buyOrderBook[token.highestBuyPrice].higherPrice = priceInWei;\r\n            token.highestBuyPrice = priceInWei;\r\n            token.buyOrderBook[priceInWei].offers_start = 1;\r\n            // to mention a new offer at this price\r\n        }\r\n        //3.c case if priceInWei is the lowest price (new tail of the list)\r\n        else if (priceInWei < token.lowestBuyPrice) {\r\n            token.buyOrderBook[priceInWei].higherPrice = token.lowestBuyPrice;\r\n            token.buyOrderBook[token.lowestBuyPrice].lowerPrice = priceInWei;\r\n            token.lowestBuyPrice = priceInWei;\r\n            token.buyOrderBook[priceInWei].offers_start = 1;\r\n        }\r\n        //3.d case if priceInWei does not exist in the list\r\n        else if (priceInWei != currentPrice) {\r\n            uint previousHigherPrice = token.buyOrderBook[currentPrice].higherPrice;\r\n            token.buyOrderBook[currentPrice].higherPrice = priceInWei;\r\n            token.buyOrderBook[priceInWei].lowerPrice = currentPrice;\r\n            token.buyOrderBook[previousHigherPrice].lowerPrice = priceInWei;\r\n            token.buyOrderBook[priceInWei].higherPrice = previousHigherPrice;\r\n            token.buyOrderBook[priceInWei].offers_start = 1;\r\n        }\r\n        //4. push the offer in the offer queue\r\n        OrderBook storage orderBook = token.buyOrderBook[priceInWei];\r\n        orderBook.offers_end ++;\r\n        orderBook.offers[orderBook.offers_end] = Offer(msg.sender, remainingAmount);\r\n\r\n        //5. add to the buy order book total quantity\r\n        token.amountBuy = token.amountBuy.add(remainingAmount);\r\n        etherBalanceForAddress[msg.sender] = etherBalanceForAddress[msg.sender].sub(remainingAmount.mul(priceInWei).div(weiValue));\r\n        emit BuyLimitOrderCreated(msg.sender, timestamp, symbolName, remainingAmount, priceInWei, orderBook.offers_end, \"buy\");\r\n\r\n        // 6. return order position\r\n        return orderBook.offers_end;\r\n    }\r\n\r\n    ///////// SELL ORDER /////////\r\n\r\n    // function getSellOrderBookPricesAndAmount(string symbolName) public view returns (uint, uint, uint) {\r\n    //     require(hasToken(symbolName), \"token is not referenced in the exchange  error7\");\r\n\r\n    //     uint8 idx = getSymbolIndex(symbolName);\r\n    //     Token storage token = tokens[idx];\r\n    //     return (token.lowestSellPrice, token.highestSellPrice, token.amountSell);\r\n    // }\r\n\r\n    // function getSellOrderBookOffersStartAndEnd(string symbolName, uint priceInWei) public view returns (uint, uint) {\r\n    //     require(hasToken(symbolName), \"token is not referenced in the exchange  error8\");\r\n\r\n    //     uint8 idx = getSymbolIndex(symbolName);\r\n    //     Token storage token = tokens[idx];\r\n    //     return (token.sellOrderBook[priceInWei].offers_start, token.sellOrderBook[priceInWei].offers_end);\r\n    // }\r\n\r\n    // function getSellOrderBookOffersOrderTraderAndAmount(string symbolName, uint priceInWei, uint offerIndex) public view returns (address, uint) {\r\n    //     require(hasToken(symbolName), \"token is not referenced in the exchange  error9\");\r\n\r\n    //     uint8 idx = getSymbolIndex(symbolName);\r\n    //     Token storage token = tokens[idx];\r\n    //     OrderBook storage orderBook = token.sellOrderBook[priceInWei];\r\n    //     Offer storage offer = orderBook.offers[offerIndex];\r\n    //     return (offer.trader, offer.amount);\r\n    // }\r\n\r\n    function matchBuyOrder(Token storage token, string memory symbolName, uint8 idx, uint amount, uint priceInWei) internal returns (uint) {\r\n        uint currentBuyPrice = token.highestBuyPrice;\r\n        uint remainingAmount = amount;\r\n        uint etherAmountInWei;\r\n        while (currentBuyPrice > 0 && currentBuyPrice >= priceInWei && remainingAmount > 0) {\r\n            OrderBook storage buyOrderBook = token.buyOrderBook[currentBuyPrice];\r\n            uint offer_idx = buyOrderBook.offers_start;\r\n            while (offer_idx <= buyOrderBook.offers_end && remainingAmount > 0) {\r\n                Offer storage offer = buyOrderBook.offers[offer_idx];\r\n\r\n                // skip the canceled order\r\n                if (offer.amount == 0) {\r\n                    buyOrderBook.offers_start ++;\r\n                    offer_idx ++;\r\n                    continue;\r\n                }\r\n                // 1. take no more than remainingAmount\r\n                uint minAmount = offer.amount;\r\n                if (offer.amount > remainingAmount) {\r\n                    minAmount = remainingAmount;\r\n                }\r\n                remainingAmount -= minAmount;\r\n                token.amountBuy -= minAmount;\r\n                // tokens change hands\r\n                tokenBalancesForAddress[msg.sender][idx] -= minAmount;\r\n                tokenBalancesForAddress[offer.trader][idx] += minAmount;\r\n                // ether increase for the seller\r\n                etherBalanceForAddress[msg.sender] += minAmount.mul(currentBuyPrice).div(weiValue);\r\n                // 2. partial or complete order fulfilled ?\r\n                if (minAmount == offer.amount) {\r\n                    buyOrderBook.offers_start ++;\r\n                    emit BuyLimitOrderFulfilled(offer.trader, block.timestamp, symbolName, minAmount, currentBuyPrice, offer_idx, \"buy\");\r\n                    // auto withdraw - withdrawEther\r\n                    etherAmountInWei = minAmount.mul(currentBuyPrice).div(weiValue);\r\n                    require( etherAmountInWei <= etherBalanceForAddress[msg.sender], \"etherAmountInWei less than sender ether balance  error10\" );\r\n                    etherBalanceForAddress[msg.sender] = etherBalanceForAddress[msg.sender].sub(etherAmountInWei);\r\n                    payable(msg.sender).transfer(etherAmountInWei);\r\n                    emit EtherWithdrawn(offer.trader, block.timestamp, etherAmountInWei);\r\n                    // auto withdraw - withdrawToken\r\n                    require(tokenBalancesForAddress[offer.trader][idx] >= minAmount, \"token amount less than sender token balance SellLimitOrderFulfilled withdrawToken  error11\");\r\n                    tokenBalancesForAddress[offer.trader][idx] = tokenBalancesForAddress[offer.trader][idx].sub(minAmount);\r\n                    emit TokenWithdrawn(offer.trader, block.timestamp, idx, symbolName, minAmount);\r\n                    require(ERC20Interface(tokens[idx].tokenContract).transfer(offer.trader, minAmount) == true);\r\n                }\r\n                else {\r\n                    // auto withdraw - withdrawEther\r\n                    etherAmountInWei = minAmount.mul(currentBuyPrice).div(weiValue);\r\n                    require( etherAmountInWei <= etherBalanceForAddress[msg.sender], \"etherAmountInWei less than sender ether balance  error12\" );\r\n                    etherBalanceForAddress[msg.sender] = etherBalanceForAddress[msg.sender].sub(etherAmountInWei);\r\n                    payable(msg.sender).transfer(etherAmountInWei);\r\n                    emit EtherWithdrawn(offer.trader, block.timestamp, etherAmountInWei);\r\n                    // auto withdraw - withdrawToken\r\n                    require(tokenBalancesForAddress[offer.trader][idx] >= minAmount, \"token amount less than sender token balance SellLimitOrderFulfilled withdrawToken  error13\");\r\n                    tokenBalancesForAddress[offer.trader][idx] = tokenBalancesForAddress[offer.trader][idx].sub(minAmount);\r\n                    emit TokenWithdrawn(offer.trader, block.timestamp, idx, symbolName, minAmount);\r\n                    require(ERC20Interface(tokens[idx].tokenContract).transfer(offer.trader, minAmount) == true);\r\n                }\r\n                offer.amount -= minAmount;\r\n                // 3. move to the next offer\r\n                offer_idx ++;\r\n            }\r\n            currentBuyPrice = buyOrderBook.lowerPrice;\r\n            if (buyOrderBook.lowerPrice != 0) {\r\n                token.highestBuyPrice = buyOrderBook.lowerPrice;\r\n            }\r\n        }\r\n        return remainingAmount;\r\n    }\r\n\r\n    function sellToken(string memory symbolName, uint amount, uint priceInWei) public returns (uint) {\r\n        require(hasToken(symbolName), \"token is not referenced in the exchange\");\r\n        // deposit Token\r\n        uint8 idx = getSymbolIndex(symbolName);\r\n        ERC20Interface token_deposit = ERC20Interface(tokens[idx].tokenContract);\r\n        require(token_deposit.approve(msg.sender, amount));\r\n        require(token_deposit.transferFrom(msg.sender, address(this), amount));\r\n        tokenBalancesForAddress[msg.sender][idx] = tokenBalancesForAddress[msg.sender][idx].add(amount);\r\n        emit TokenDeposited(msg.sender, block.timestamp, idx, symbolName, amount);\r\n\r\n        uint256 tokenBalance = getBalanceToken(msg.sender, symbolName);\r\n        require(amount <= tokenBalance, 'token balance for msg.sender is not enough to cover the sell order  error14');\r\n        Token storage token = tokens[idx];\r\n\r\n        // 1. check that no matching buy orders. priceInWei >= priceInWei in buy orders\r\n        uint remainingAmount = matchBuyOrder(token, symbolName, idx, amount, priceInWei);\r\n\r\n        if (remainingAmount == 0) {\r\n            emit SellLimitOrderFulfilled(msg.sender, block.timestamp, symbolName, amount, priceInWei, 0, \"sell\");\r\n            // auto withdraw //\r\n            return 0;\r\n        }\r\n\r\n        // 2. place remaining unfulfilled order quantity in the sell order book sorted by ascending order\r\n        uint currentPrice = token.lowestSellPrice;\r\n        while (priceInWei > currentPrice && priceInWei <= token.highestSellPrice) {\r\n            currentPrice = token.sellOrderBook[currentPrice].higherPrice;\r\n        }\r\n\r\n        //3. Found the index in the sellOrderBook. Now need to insert it.\r\n        //3.a case if first sell order in the sell order book\r\n        if (token.amountSell == 0) {\r\n            token.lowestSellPrice = priceInWei;\r\n            token.highestSellPrice = priceInWei;\r\n            token.sellOrderBook[priceInWei].offers_start = 1;\r\n            // to mention a new offer at this price\r\n        }\r\n        //3.b case if priceInWei is the lowest price (new head of the list)\r\n        else if (priceInWei < token.lowestSellPrice) {\r\n            token.sellOrderBook[priceInWei].higherPrice = token.lowestSellPrice;\r\n            token.sellOrderBook[token.lowestSellPrice].lowerPrice = priceInWei;\r\n            token.lowestSellPrice = priceInWei;\r\n            token.sellOrderBook[priceInWei].offers_start = 1;\r\n            // to mention a new offer at this price\r\n        }\r\n        //3.c case if priceInWei is the highest price (new tail of the list)\r\n        else if (priceInWei > token.highestSellPrice) {\r\n            token.sellOrderBook[priceInWei].lowerPrice = token.highestSellPrice;\r\n            token.sellOrderBook[token.highestSellPrice].higherPrice = priceInWei;\r\n            token.highestSellPrice = priceInWei;\r\n            token.sellOrderBook[priceInWei].offers_start = 1;\r\n            // to mention a new offer at this price\r\n        }\r\n        //3.d case if priceInWei does not exist in the list\r\n        else if (priceInWei != currentPrice) {\r\n            uint previousLowerPrice = token.sellOrderBook[currentPrice].lowerPrice;\r\n            token.sellOrderBook[currentPrice].lowerPrice = priceInWei;\r\n            token.sellOrderBook[priceInWei].higherPrice = currentPrice;\r\n            token.sellOrderBook[previousLowerPrice].higherPrice = priceInWei;\r\n            token.sellOrderBook[priceInWei].lowerPrice = previousLowerPrice;\r\n            token.sellOrderBook[priceInWei].offers_start = 1;\r\n            // to mention a new offer at this price\r\n        }\r\n\r\n        // 4 push the offer in the offer queue\r\n        OrderBook storage orderBook = token.sellOrderBook[priceInWei];\r\n        orderBook.offers_end ++;\r\n        orderBook.offers[orderBook.offers_end] = Offer(msg.sender, remainingAmount);\r\n        //5. add to the sell order book total quantity\r\n        token.amountSell = token.amountSell.add(remainingAmount);\r\n        tokenBalancesForAddress[msg.sender][idx] = tokenBalancesForAddress[msg.sender][idx].sub(remainingAmount);\r\n        emit SellLimitOrderCreated(msg.sender, block.timestamp, symbolName, remainingAmount, priceInWei, orderBook.offers_end, \"sell\");\r\n        // 6. return order position\r\n        return orderBook.offers_end;\r\n    }\r\n\r\n    //////// CANCEL ORDER ////////\r\n\r\n    // can a cancel be run at the same time than an execution because many transactions can happen in the same block ?\r\n    // can a cancel front run an execution and put the exchange into an inconsistent state ?\r\n    function cancelBuyLimitOrder(string memory symbolName, uint priceInWei, uint orderPosition) public {\r\n        uint timestamp = block.timestamp;\r\n        require(hasToken(symbolName), \"token is not referenced in the exchange  error15\");\r\n        // uint256 tokenBalance = getBalanceToken(msg.sender, symbolName);\r\n        uint8 idx = getSymbolIndex(symbolName);\r\n        Token storage token = tokens[idx];\r\n        Offer storage offer = token.buyOrderBook[priceInWei].offers[orderPosition];\r\n        require(offer.trader == msg.sender, \"the offer trader is not the sender error16\");\r\n        require(offer.amount != 0, \"the order has already been canceled\");\r\n        etherBalanceForAddress[msg.sender] = etherBalanceForAddress[msg.sender].add(offer.amount.mul(priceInWei).div(weiValue));\r\n        token.amountBuy = token.amountBuy.sub(offer.amount);\r\n        emit BuyLimitOrderCanceled(msg.sender, timestamp, symbolName, offer.amount, priceInWei, orderPosition, \"buy\");\r\n        uint etherAmountInWei = offer.amount.mul(priceInWei).div(weiValue);\r\n        require(etherAmountInWei <= etherBalanceForAddress[msg.sender], \"etherAmountInWei less than sender ether balance  error17\" );\r\n        etherBalanceForAddress[msg.sender] = etherBalanceForAddress[msg.sender].sub(etherAmountInWei);\r\n        payable(offer.trader).transfer(etherAmountInWei);\r\n        emit EtherWithdrawn(offer.trader, timestamp, etherAmountInWei);\r\n        offer.amount = 0;\r\n    }\r\n\r\n    // can a cancel be run at the same time than an execution because many transactions can happen in the same block ?\r\n    // can a cancel front run an execution and put the exchange into an inconsistent state ?\r\n    function cancelSellLimitOrder(string memory symbolName, uint priceInWei, uint orderPosition) public {\r\n        uint timestamp = block.timestamp;\r\n        require(hasToken(symbolName), \"token is not referenced in the exchange  error18\");\r\n        // uint256 tokenBalance = getBalanceToken(msg.sender, symbolName);\r\n        uint8 idx = getSymbolIndex(symbolName);\r\n        Token storage token = tokens[idx];\r\n        Offer storage offer = token.sellOrderBook[priceInWei].offers[orderPosition];\r\n        require(offer.trader == msg.sender, \"the offer trader is not the sender  error19\");\r\n        require(offer.amount != 0, \"the order has already been canceled  error20\");\r\n        tokenBalancesForAddress[msg.sender][idx] = tokenBalancesForAddress[msg.sender][idx].add(offer.amount);\r\n        token.amountSell = token.amountSell.sub(offer.amount);\r\n        emit SellLimitOrderCanceled(msg.sender, timestamp, symbolName, offer.amount, priceInWei, orderPosition, \"sell\");\r\n        require(tokenBalancesForAddress[msg.sender][idx] >= offer.amount, \"token amount less than sender token balance error20\");\r\n        tokenBalancesForAddress[msg.sender][idx] = tokenBalancesForAddress[msg.sender][idx].sub(offer.amount);\r\n        emit TokenWithdrawn(msg.sender, timestamp, idx, symbolName, offer.amount);\r\n        require(ERC20Interface(tokens[idx].tokenContract).transfer(msg.sender, offer.amount) == true);\r\n        offer.amount = 0;\r\n    }\r\n}\r\n",
  "sourcePath": "D:\\Working\\Blockchain\\truffle\\dev-tools-truffle-example\\contracts\\Exchange.sol",
  "compiler": {
    "name": "solc",
    "version": "0.8.4+commit.c7e474f2.Emscripten.clang"
  },
  "schemaVersion": "3.4.5",
  "updatedAt": "2022-03-04T17:29:33.169Z",
  "devdoc": {
    "kind": "dev",
    "methods": {
      "renounceOwnership()": {
        "details": "Allows the current owner to relinquish control of the contract."
      },
      "transferOwnership(address)": {
        "details": "Allows the current owner to transfer control of the contract to a newOwner.",
        "params": {
          "newOwner": "The address to transfer ownership to."
        }
      }
    },
    "version": 1
  },
  "userdoc": {
    "events": {
      "BuyLimitOrderCreated(address,uint256,string,uint256,uint256,uint256,string)": {
        "notice": "ORDER EVENTS ///"
      },
      "TokenAdded(address,uint256,uint8,string)": {
        "notice": "EVENTS ///"
      }
    },
    "kind": "user",
    "methods": {
      "addToken(string,address)": {
        "notice": "TOKEN MANAGEMENT ///"
      },
      "getBalanceInWei()": {
        "notice": "ETHER DEPOSIT & WITHDRAW ///"
      },
      "getBalanceToken(address,string)": {
        "notice": "TOKEN DEPOSIT & WITHDRAW ///"
      },
      "getBuyOrderBookPricesAndAmount(string)": {
        "notice": "ORDER BOOK MANAGEMENT ///"
      }
    },
    "version": 1
  }
}